S021000053455034452D54776F2D706C617965722D70696E67506F6E672E7372656312
S11300000C943E000C945B000C945B000C945B001D
S11300100C945B000C945B000C945B000C945B00F0
S11300200C945B000C945B000C945B000C945B00E0
S11300300C945B000C9470150C945B000C945B00A6
S11300400C945C0F0C945B000C945B000C945B00B0
S11300500C9478160C94D1160C945B000C945B00F1
S11300600C945B000C945B000C945B000C945B00A0
S11300700C942C170C9485170C945B0011241FBE50
S1130080CFEFD8E0DEBFCDBF11E0A0E0B1E0EAEBF6
S1130090FFE402C005900D92A637B107D9F728E016
S11300A0A6E7B1E001C01D92A332B207E1F70E94B6
S11300B0D5090C94DB270C940000CF93DF93CDB7C4
S11300C0DEB72C970FB6F894DEBF0FBECDBF98876E
S11300D08F8369875B874A872C878A859B859A8368
S11300E089838C85882F90E02A853B85820F931F16
S11300F09C838B838985882F90E02F813885820F9C
S1130100931F9E838D8369C08F819885FC018081B4
S1130110882F90E0009721F08F3F910541F14AC06C
S11301208B819C819C01215031098A859B85821792
S11301309307D8F48A859B859C012F5F3F4F3B87AB
S11301402A872F813885F9012081FC0120838A8543
S11301509B859C012F5F3F4F3B872A872F813885E2
S1130160F9012081FC01208333C080E04DC08B81E4
S11301709C819C01215031098A859B8582179307B4
S1130180B8F48A859B859C012F5F3F4F3B872A8764
S1130190FC0110828A859B859C012F5F3F4F3B8722
S11301A02A872F813885F9012081FC01208310C022
S11301B080E02AC08A859B859C012F5F3F4F3B8747
S11301C02A872F813885F9012081FC0120830000D2
S11301D08F819885019698878F832F8138858D81AB
S11301E09E812817390740F42A853B858B819C81A1
S11301F02817390708F488CF2A853B8589819A8195
S1130200A901481B590BCA012C960FB6F894DEBFFE
S11302100FBECDBFDF91CF910895CF93DF93CDB7BC
S1130220DEB72C970FB6F894DEBF0FBECDBF98870C
S11302308F8369875B874A872C878F8198859A8308
S113024089838985882F90E02F813885820F931FB9
S11302509C838B838C85882F90E02A853B85820F35
S1130260931F9E838D8339C08A859B85FC01808181
S1130270882309F58A859B8501969B878A878A85C9
S11302809B85FC018081882331F08A859B85FC0154
S113029080818F3F71F48F8198859C012F5F3F4F40
S11302A038872F832A853B85F9012081FC0120832F
S11302B00FC080E029C08F8198859C012F5F3F4F3C
S11302C038872F832A853B85F9012081FC0120830F
S11302D08A859B8501969B878A872F8138858B81A8
S11302E09C812817390740F42A853B858D819E819E
S11302F02817390708F4B8CF2F81388589819A8166
S1130300A901481B590BCA012C960FB6F894DEBFFD
S11303100FBECDBFDF91CF910895CF93DF9300D06F
S1130320CDB7DEB789836A838A81882F90E08130D4
S1130330910509F473C0029709F0E3C08981882309
S113034071F48981882F90E0880F991F8A589E4FF5
S1130350FC0180819181FC0181818F3798F0898132
S1130360813009F0CBC08981882F90E0880F991FD4
S11303708A589E4FFC0180819181FC0181818A38D9
S113038008F0BCC08981882F90E0880F991F8A5893
S11303909E4FFC01808191812981222F30E0220F20
S11303A0331F2A583E4FF90120813181F9012181FF
S11303B0225FFC0121838981882F90E0880F991F97
S11303C08A589E4FFC01808191812981222F30E03F
S11303D0220F331F2A583E4FF90120813181F90140
S11303E02281225FFC0122838981882F90E0880F7B
S11303F0991F8A589E4FFC01808191812981222F67
S113040030E0220F331F2A583E4FF90120813181F9
S1130410F9012381225FFC01238370C08981882331
S113042071F48981882F90E0880F991F8A589E4F14
S1130430FC0180819181FC018381823098F489815F
S1130440813009F05DC08981882F90E0880F991F61
S11304508A589E4FFC0180819181FC0183818D30FB
S113046008F44EC08981882F90E0880F991F8A581C
S11304709E4FFC01808191812981222F30E0220F3F
S1130480331F2A583E4FF90120813181F90121811E
S11304902E50FC0121838981882F90E0880F991FB9
S11304A08A589E4FFC01808191812981222F30E05E
S11304B0220F331F2A583E4FF90120813181F9015F
S11304C022812E50FC0122838981882F90E0880F9D
S11304D0991F8A589E4FFC01808191812981222F86
S11304E030E0220F331F2A583E4FF9012081318119
S11304F0F90123812E50FC01238302C0000001C0B6
S1130500000000000F900F90DF91CF910895CF93DA
S1130510DF93CDB7DEB790917A0181E089278823F4
S1130520A9F01092850110927C0110927B01109227
S11305307E0110927D0181E080937A0186E291E050
S11305400E94C90286E791E00E94A7050000DF919E
S1130550CF910895CF93DF93CDB7DEB710927A0190
S11305600000DF91CF910895CF93DF9300D0CDB7F2
S1130570DEB789836A838A81880F982F990F990F30
S1130580990F981B8981890F0F900F90DF91CF915C
S11305900895CF93DF9300D0CDB7DEB79A838983D4
S11305A089819A810E94D22721E0280F89819A812A
S11305B0622F0E943D0E00000F900F90DF91CF91AB
S11305C008950F931F93CF93DF93CDB7DEB72A9788
S11305D00FB6F894DEBF0FBECDBF9A878987898591
S11305E09A859D838C83198211C08981082F10E01C
S11305F00E948A059C01C801880F991F8A589E4F42
S1130600FC013183208389818F5F898389818230D2
S113061060F30E94E32198878F838C819D810E94DF
S11306200E0686E791E00E94A705209100018C81C7
S11306309D81422F66E771E00E94630680E090E0AE
S11306400E946B258E83CE01079669E170E00E94BB
S11306506D2080918501882349F0809183019091D8
S11306608401019690938401809383018091830196
S1130670909184012BE730E0B9010E947827892BFF
S113068079F490917A0181E08927882349F0809157
S11306908501882329F081E080937A0110928501F5
S11306A080918301909184018436914021F41092C9
S11306B084011092830180917A01882309F4BECFCA
S11306C08C819D810E940E061B821A829CC190918E
S11306D000018FE4989F812D1124869586952DE045
S11306E0829F802D1124292F281B822F282F30E050
S11306F0909100018FE4989F812D11248695869511
S1130700882F90E001972817390729F580917B01FC
S113071090917C01019690937C0180937B0185E10B
S11307208093000182E090E09093020180930101A4
S113073040917D0150917E0120917B0130917C019B
S11307408C819D81B9010E94220710927A0181E077
S11307508093850166C080910001882F90E00C97FA
S11307602EE030E0B9010E947827892BB9F48091FA
S1130770780190917901FC01918180910001981791
S113078069F482E090E0909302018093010181E09A
S113079090E0909382018093810143C08091000195
S11307A0882F90E00C972EE030E0B9010E94782762
S11307B0892BB9F48091780190917901FC0192819F
S11307C080910001981769F482E090E0909302010F
S11307D08093010182E090E09093820180938101F3
S11307E020C080910001882F90E00C972EE030E02B
S11307F0B9010E947827892BA1F480917801909106
S11308007901FC01938180910001981751F482E0F1
S113081090E0909302018093010110928201109262
S1130820810120910001922F969583E9989F812D53
S1130830112486958695982F892F880F982F892FB4
S1130840880F880F880F891BF22FF81B8F2F88239E
S113085029F580917D0190917E01019690937E010E
S113086080937D0181E090E09093020180930101E7
S113087085E18093000140917D0150917E0120919A
S11308807B0130917C018C819D81B9010E942207FA
S113089010927A0181E08093850166C08091000105
S11308A0882F90E001972EE030E0B9010E9478276C
S11308B0892BB9F48091760190917701FC019181A3
S11308C080910001981769F481E090E0909302010F
S11308D08093010181E090E09093820180938101F3
S11308E043C080910001882F90E001972EE030E012
S11308F0B9010E947827892BB9F4809176019091EF
S11309007701FC01928180910001981769F481E0DC
S113091090E0909302018093010182E090E0909333
S113092082018093810120C080910001882F90E092
S113093001972EE030E0B9010E947827892BA1F4B9
S11309408091760190917701FC019381809100015F
S1130950981751F481E090E0909302018093010193
S1130960109282011092810180917F019091800107
S11309702BE130E0B9010E947827892B49F480915A
S1130980010190910201BC0180E091E00E941205F6
S113099080917F01909180010196909380018093D2
S11309A07F0180917F01909180018E30914021F4EC
S11309B01092800110927F0180917B0190917C01C3
S11309C0029730F480917D0190917E010297B0F0FE
S11309D080917B0190917C01029720F089E391E062
S11309E00E94C90280917D0190917E01029720F0BE
S11309F086E491E00E94C9020E94AA028A819B8136
S1130A0001969B838A838A819B8102970CF45FCE33
S1130A10209100018C819D81422F66E771E00E9444
S1130A2063060CCECF93DF9300D000D01F92CDB7D6
S1130A30DEB79B838A837D836C838A819B81FC01DF
S1130A408081898389818E3720F0109282011092EF
S1130A50810189818D3030F481E090E090938201AE
S1130A60809381018C819D810197F1F480918101B2
S1130A7090918201019721F48981815F898331C03A
S1130A808091810190918201892B21F489818D507B
S1130A90898327C08091810190918201029709F591
S1130AA089818F5F89831DC080918101909182012A
S1130AB0019721F48981835F898313C08091810127
S1130AC090918201892B21F489818F50898309C0F7
S1130AD08091810190918201029719F4898181505A
S1130AE08983898191E08C3808F490E02CE8929F06
S1130AF0902D1124891B89838A819B812981FC0182
S1130B00208300000F900F900F900F900F90DF91B3
S1130B10CF910895CF93DF9300D0CDB7DEB784E0B3
S1130B2090E00E94E0179A83898389819A81892BB6
S1130B3019F489819A8106C089819A81FC01108205
S1130B4089819A810F900F90DF91CF9108950F932F
S1130B501F93CF93DF9300D0CDB7DEB79A838983F9
S1130B6089819A81FC018081918123E0FC012083A9
S1130B7089819A81FC010081118162E081E00E94F7
S1130B80B402F801818389819A81FC010081118179
S1130B9061E081E00E94B402F801828389819A8134
S1130BA0FC010081118160E081E00E94B402F8013F
S1130BB0838389819A810296FC018081918123E05B
S1130BC0FC01208389819A810296FC0100811181B4
S1130BD069E08CE00E94B402F801818389819A81E2
S1130BE00296FC010081118168E08CE00E94B4024D
S1130BF0F801828389819A810296FC010081118126
S1130C0067E08CE00E94B402F801838300000F9037
S1130C100F90DF91CF911F910F910895CF93DF93A0
S1130C2000D01F92CDB7DEB79B838A8319820FC091
S1130C308981882F90E0880F991F2A813B81820F38
S1130C40931FFC011182108289818F5F89838981BE
S1130C508E3070F300000F900F900F90DF91CF91C2
S1130C600895CF93DF931F92CDB7DEB7898389812F
S1130C70982F969583E9989F812D112486958695C2
S1130C800F90DF91CF910895CF93DF931F92CDB74B
S1130C90DEB789832981922F969583E9989F812DC8
S1130CA0112486958695982F892F880F982F892F40
S1130CB0880F880F880F891B922F981B892F0F90FC
S1130CC0DF91CF9108950F931F93CF93DF93CDB707
S1130CD0DEB727970FB6F894DEBF0FBECDBF9C8357
S1130CE08B837E836D834F838F810E943106882F8F
S1130CF090E029E030E0281B390B81E090E08C0182
S1130D0002C0000F111F2A95E2F78F810E9444064A
S1130D10482F842F90E0880F991F2B813C81820FEC
S1130D20931F242F30E0220F331F4B815C81240F4B
S1130D30351FF90120813181A801242B352BFC01B9
S1130D403183208319826EC01A8257C08981882F0B
S1130D5090E0880F991F2D813E81820F931FFC0123
S1130D60208131818A81882F90E0820F931F019620
S1130D70FC0180810E943106882F90E029E030E058
S1130D80281B390B81E090E08C0102C0000F111F79
S1130D902A95E2F78981882F90E0880F991F2D8189
S1130DA03E81820F931FFC01208131818A81882F2B
S1130DB090E0820F931F0196FC0180810E944406FB
S1130DC0482F842F90E0880F991F2B813C81820F3C
S1130DD0931F242F30E0220F331F4B815C81240F9B
S1130DE0351FF90120813181A801242B352BFC0109
S1130DF0318320838A818F5F8A838981882F90E061
S1130E00880F991F2D813E81820F931FFC018081E1
S1130E109181FC0190818A81891708F497CF898197
S1130E208F5F89838981823008F48ECF00002796F2
S1130E300FB6F894DEBF0FBECDBFDF91CF911F91E7
S1130E400F9108950F931F93CF93DF93CDB7DEB720
S1130E5028970FB6F894DEBF0FBECDBF9E838D8357
S1130E606F8348878F81813009F043C08FE1898384
S1130E703CC08981882F90E003972EE030E0B901CF
S1130E800E947827892B71F589810E943106882F69
S1130E9090E029E030E0281B390B81E090E08C01E0
S1130EA002C0000F111F2A95E2F789810E944406AF
S1130EB0482F842F90E0880F991F2D813E81820F47
S1130EC0931F242F30E0220F331F4D815E81240FA6
S1130ED0351FF90120813181A801242B352BFC0118
S1130EE03183208389818F5F89838981863608F2E3
S1130EF080C08F81823009F07CC08FE18A8375C005
S1130F008A81882F90E003972EE030E0B9010E9497
S1130F107827892B71F58A810E943106882F90E009
S1130F2029E030E0281B390B81E090E08C0102C0FD
S1130F30000F111F2A95E2F78A810E944406482F68
S1130F40842F90E0880F991F2D813E81820F931F7B
S1130F50242F30E0220F331F4D815E81240F351F73
S1130F60F90120813181A801242B352BFC01318327
S1130F7020838A81882F90E005972EE030E0B90124
S1130F800E947827892B71F58A810E943106882F67
S1130F9090E029E030E0281B390B81E090E08C01DF
S1130FA002C0000F111F2A95E2F78A810E944406AD
S1130FB0482F842F90E0880F991F2D813E81820F46
S1130FC0931F242F30E0220F331F4D815E81240FA5
S1130FD0351FF90120813181A801242B352BFC0117
S1130FE0318320838A818F5F8A838A81883608F4DB
S1130FF087CF8885813009F043C085E28B833CC06C
S11310008B81882F90E009972EE030E0B9010E948F
S11310107827892B71F58B810E943106882F90E007
S113102029E030E0281B390B81E090E08C0102C0FC
S1131030000F111F2A95E2F78B810E944406482F66
S1131040842F90E0880F991F2D813E81820F931F7A
S1131050242F30E0220F331F4D815E81240F351F72
S1131060F90120813181A801242B352BFC01318326
S113107020838B818F5F8B838B818C3608F280C0B9
S11310808885823009F07CC085E28C8375C08C81B0
S1131090882F90E009972EE030E0B9010E9478276C
S11310A0892B71F58C810E943106882F90E029E00C
S11310B030E0281B390B81E090E08C0102C0000F66
S11310C0111F2A95E2F78C810E944406482F842F31
S11310D090E0880F991F2D813E81820F931F242F4A
S11310E030E0220F331F4D815E81240F351FF9013B
S11310F020813181A801242B352BFC0131832083ED
S11311008C81882F90E00B972EE030E0B9010E948B
S11311107827892B71F58C810E943106882F90E005
S113112029E030E0281B390B81E090E08C0102C0FB
S1131130000F111F2A95E2F78C810E944406482F64
S1131140842F90E0880F991F2D813E81820F931F79
S1131150242F30E0220F331F4D815E81240F351F71
S1131160F90120813181A801242B352BFC01318325
S113117020838C818F5F8C838C818E3608F487CF9B
S1131180000028960FB6F894DEBF0FBECDBFDF91E6
S1131190CF911F910F910895CF93DF93CDB7DEB711
S11311A086E290E0FC018081282F207486E290E0A2
S11311B0FC0180818170282B89E290E0FC01808110
S11311C08870822BDF91CF910895CF93DF9300D065
S11311D000D0CDB7DEB79C838B830E94E3219A8332
S11311E0898369E170E0CE0101960E946D200E941E
S11311F0CC08882F90E080749927892B21F462E031
S113120080E00E948D010E94CC08882F90E08170BC
S11312109927892B21F461E080E00E948D010E94CE
S1131220CC08882F90E088709927892BD1F60E94EA
S11312308702D7CFCF93DF93CDB7DEB70000DF911E
S1131240CF910895CF93DF93CDB7DEB78BE290E0D3
S11312502BE230E0F90120812460FC0120830000AE
S1131260DF91CF910895CF93DF93CDB7DEB78BE2B3
S113127090E02BE230E0F90120812062FC01208320
S11312808BE290E02BE230E0F90120812F7DFC011C
S113129020838BE290E02BE230E0F9012081206191
S11312A0FC0120838BE290E02BE230E0F901208105
S11312B02F7EFC0120838BE290E02BE230E0F901E9
S11312C020812B7FFC0120830000DF91CF910895C2
S11312D0CF93DF9300D0CDB7DEB79A83898382E2C0
S11312E090E029812095FC01208385E290E025E2AD
S11312F030E0F90120812360FC01208385E290E045
S113130025E230E0F901408129813A81232F3327F6
S1131310237020952423FC01208300000F900F905C
S1131320DF91CF910895CF93DF93CDB7DEB780914E
S11313308601882311F40E94220980918601882F56
S113134090E0880F991F8D5F9E4FFC0180819181F1
S11313500E9468090E943309809186018F5F8093FF
S11313608601809186018E3010F010928601000073
S1131370DF91CF910895CF93DF9300D000D0CDB704
S1131380DEB79A8389837C836B8300000F900F9070
S11313900F900F90DF91CF910895CF93DF93CDB746
S11313A0DEB70000DF91CF910895EF92FF920F9383
S11313B0CF93DF9300D01F92CDB7DEB7F8940E948D
S11313C0A40F8BE290E02BE230E0F90120812F7B27
S11313D0FC012083E12CF12C03E020E030E04AEF13
S11313E050E063E571E08EEC9CE00E94901E8983DE
S11313F0E12CF12C02E020E030E047E850E06EE51B
S113140071E085EE98E00E94901E8A83E12CF12C15
S113141004E023E031E047E850E067E671E081EE64
S113142092E00E94901E8B8383E999E00E94290F29
S113143078940E940A21FFCFCF93DF93CDB7DEB714
S113144027970FB6F894DEBF0FBECDBF9E838D8362
S11314506F8319821A8226C08A81882F90E02D8199
S11314603E81820F931FFC018081998189278983A2
S11314701B8212C08981881F8827881F8C838981D9
S1131480880F89838C81882321F0998187E08927BB
S113149089838B818F5F8B838B81883058F38A811A
S11314A08F5F8A839A818F819817B0F289812796FA
S11314B00FB6F894DEBF0FBECDBFDF91CF91089574
S11314C0CF93DF93CDB7DEB728970FB6F894DEBF7E
S11314D00FBECDBF9D838C836E8358874F838E81CF
S11314E0843010F480E041C08C819D81FC018081B6
S11314F00E94C10B982F81E08927882311F080E096
S113150034C08C819D816E810E94E90B89838C811A
S11315109D8169810E94D00B982F81E089278823BF
S113152011F080E022C08C819D81FC0181818A833D
S113153083E08B8399818B81F92FF81B8F2F6FEFB9
S1131540680F8B81882F90E02C813D81A901480F81
S1131550591F8C819D81262F6E810E940D01282F99
S11315608F819885FC0120838A8128960FB6F89490
S1131570DEBF0FBECDBFDF91CF910895CF93DF9330
S1131580CDB7DEB72C970FB6F894DEBF0FBECDBF34
S113159098878F8369875B874A872C878F81988593
S11315A09B838A838985882F90E00E94E0179D831E
S11315B08C838C819D81892B11F480E07FC01E82F5
S11315C08C85282F220F4C815D818A859B856C85B3
S11315D00E945D008E838E81882309F46AC0898508
S11315E0282F30E08E81882F90E004962817390741
S11315F008F45FC08F8198859C012F5F3F4F388727
S11316002F832FEFFC0120838F8198859C012F5F0E
S11316103F4F38872F8321E0FC0120838F819885F9
S11316209C012F5F3F4F38872F832E812C5FFC0155
S11316302083198215C08F8198859C012F5F3F4FAD
S113164038872F832981222F30E04C815D81240F3C
S1131650351FF9012081FC01208389818F5F8983F3
S113166099818E81981738F38C819D810E94D518B9
S11316702F8138858A819B81A901481B590BCA0196
S1131680282F8A819B81622F0E941C0A282F8F8118
S11316909885FC0120838F819885019698878F8394
S11316A02F8138858A819B81A901481B590BCA0166
S11316B005C08C819D810E94D51880E02C960FB6C0
S11316C0F894DEBF0FBECDBFDF91CF910895CF93C5
S11316D0DF9300D000D01F92CDB7DEB79C838B83FD
S11316E06D838B819C819A8389838D81843008F4F6
S11316F03FC08B819C819C012F5F3F4F3C832B8398
S11317002FEFFC0120838B819C819C012F5F3F4F35
S11317103C832B8322E0FC0120838B819C819C01F0
S11317202F5F3F4F3C832B8324E0FC0120832B81DC
S11317303C8189819A81A901481B590BCA01282F30
S113174089819A81622F0E941C0A282F8B819C8197
S1131750FC0120838B819C8101969C838B832B814C
S11317603C8189819A81A901481B590BCA0101C096
S113177080E00F900F900F900F900F90DF91CF911A
S11317800895CF93DF931F92CDB7DEB7898381E0AD
S113179099819F3F09F080E00F90DF91CF910895E8
S11317A0CF93DF9300D01F92CDB7DEB79A8389839E
S11317B06B8389819A816B810E941C0A982F81E036
S11317C0992309F080E00F900F900F90DF91CF9153
S11317D00895CF93DF9300D01F92CDB7DEB79A83DD
S11317E089836B838B81833010F480E016C08981F8
S11317F09A81FC0180818F3F11F080E00EC08981C5
S11318009A8101969A83898389819A8101969A8320
S1131810898389819A81FC0180810F900F900F90B8
S1131820DF91CF910895CF93DF9300D01F92CDB76E
S1131830DEB79A8389836B838B81833010F420E035
S113184011C089819A8101969A83898389819A81B9
S1131850FC018081882F90E08270992721E0892BF8
S113186009F420E0822F0F900F900F90DF91CF9119
S11318700895CF93DF93CDB7DEB728970FB6F894CA
S1131880DEBF0FBECDBF9B838A837D836C834E8373
S113189038872F838E81843008F06FC080E075C054
S11318A08F819885FC018081882F90E02C813D8177
S11318B0B901680F791F8A819B8120E040E050E0E4
S11318C00E94B41B882311F480E05FC08F81988547
S11318D0FC018081882361F48C819D81FC018081DD
S11318E00E94C10B982F81E08927882309F045C005
S11318F08F819885FC01808121E0280F8F81988554
S1131900FC0120838F819885FC0180818330A8F1BC
S11319108C819D8163E00E94E90B89839E8189818A
S1131920981710F580E031C08F819885FC01808183
S1131930882F90E02C813D81B901680F791F8A813D
S11319409B8120E040E050E00E94B41B882311F406
S113195080E01BC08F819885FC01808121E0280FE5
S11319608F819885FC0120838F819885FC0190816B
S113197089819817C8F281E008C08F819885FC019D
S113198090818E81891708F08BCF28960FB6F89432
S1131990DEBF0FBECDBFDF91CF910895CF93DF930C
S11319A0CDB7DEB7C157D1090FB6F894DEBF0FBE6D
S11319B0CDBF9E0120593F4FF9019183808340E0C0
S11319C061E084E60E94131A90938A01809389014E
S11319D043E060E081E00E94131A90938C018093AD
S11319E08B018EE140E061E00E94131A909388011C
S11319F08093870180918701909188010E94160F3E
S1131A00CE0188599F4FFC0110820E94E3219C0162
S1131A10CE0187599F4FFC0131832083CE01875922
S1131A209F4F62E370E00E946D2080918701909146
S1131A3088019E0128593F4FBE016C5F7F4F44E6E9
S1131A400E94390C882309F478C0CE0185599F4F30
S1131A50FC0110829E0125593F4FCE010496A90135
S1131A6064E60E94600A8A838A81823051F481E0AC
S1131A7080931F0110928D011092F1011092F401D4
S1131A8056C08A81813009F04FC01B82CE0184592F
S1131A909F4F64E00E94670B8B838B818823B9F18D
S1131AA080918B0190918C0120E042E350E060E052
S1131AB070E00E94B41B8823F9F0198217C0898151
S1131AC0882F90E09E0124593F4FB901680F791F78
S1131AD08091890190918A0120E040E050E00E94C9
S1131AE0A41A882341F089818F5F898399818B812E
S1131AF0981728F301C0000080918B0190918C010C
S1131B0020E040E050E060E070E00E94A41ACE01C2
S1131B1085599F4FFC018081282F30E0CE01049627
S1131B20B9010E94C40E03C081E080931F011C828E
S1131B30CE0188599F4FFC01108280911F01882398
S1131B4089F08091890190918A0121EF31E044E686
S1131B506DE871E00E94390C882309F45FCF0E947C
S1131B60D70D5CCF0E94E3219C018091F2019091FA
S1131B70F301A901481B590BCA018436910508F4E5
S1131B804DCF8091F4018F5F8093F4018091F40133
S1131B90863018F40E94D70D41CF81E080931F0155
S1131BA010928D011092F1011092F40137CFCF936E
S1131BB0DF931F92CDB7DEB78091F101882339F10D
S1131BC0198213C08981882F90E083579E4FFC01AE
S1131BD080810E94930F882321F489818F5F8983F8
S1131BE004C081E090E00E94E7208091F101998196
S1131BF0981740F30E94E3219093F3018093F2013C
S1131C0064E08DE891E00E94130C80931F010000B2
S1131C100F90DF91CF910895CF93DF9300D000D040
S1131C201F92CDB7DEB79C838B836D8319821A8292
S1131C3017C08B819C81FC0180818F3F31F08B81A7
S1131C409C81FC018081882319F489818F5F8983B9
S1131C508B819C8101969C838B838A818F5F8A838D
S1131C609A818D81981728F389810F900F900F9096
S1131C700F900F90DF91CF910895CF93DF93CDB75D
S1131C80DEB727970FB6F894DEBF0FBECDBF9E8395
S1131C908D836F838D819E816F810E940C0E982F9E
S1131CA0990F8F81890F8C5F89838981853610F024
S1131CB084E689838981882F90E00E94E0179C83C1
S1131CC08B838B819C81892B11F480E054C04D81DE
S1131CD05E818B819C812F8169810E94BE0A8983E8
S1131CE08981882309F442C08091890190918A01F5
S1131CF00E94AA1C982F89819817C0F180918B01AA
S1131D0090918C0120E042E350E060E070E00E949A
S1131D10B41B8823D1F01A8214C08A81882F90E0E2
S1131D202B813C81B901680F791F809189019091C1
S1131D308A0120E040E050E00E94A41A8A818F5F6B
S1131D408A839A818981981740F380918B019091BD
S1131D508C0120E040E050E060E070E00E94A41AB2
S1131D608B819C810E94D51881E005C08B819C8168
S1131D700E94D51880E027960FB6F894DEBF0FBEF8
S1131D80CDBFDF91CF910895CF93DF9300D01F9201
S1131D90CDB7DEB79A8389836B838B818130A9F4B5
S1131DA089819A81FC018081863229F462E081E094
S1131DB00E948D010AC089819A81FC018081883248
S1131DC021F461E081E00E948D0100000F900F90EA
S1131DD00F90DF91CF910895CF93DF9300D000D07F
S1131DE0CDB7DEB79B838A836C838091F701909192
S1131DF0F801892B99F019828091F7019091F801EB
S1131E00BE016C5F7F4F20E0AE014F5F5F4F0E94C9
S1131E10551B8981882311F00E94561400000F90ED
S1131E200F900F900F90DF91CF910895CF93DF9390
S1131E3000D0CDB7DEB79A83898389819A81909344
S1131E40F8018093F70100000F900F90DF91CF917C
S1131E500895CF93DF9300D0CDB7DEB79A838983FB
S1131E6089819A819093FA018093F90187E490E043
S1131E702AE0FC01208384E490E024E430E0F901CA
S1131E8020812260FC0120838EE690E02EE630E083
S1131E90F90120812260FC01208385E490E025E49F
S1131EA030E0F90120812560FC01208300000F90BF
S1131EB00F90DF91CF9108951F920F9200905F00D1
S1131EC00F9211242F933F934F935F936F937F93BC
S1131ED08F939F93AF93BF93EF93FF93CF93DF932E
S1131EE0CDB7DEB78091F9019091FA01892B31F0D9
S1131EF08091F9019091FA01FC0109950000DF91AC
S1131F00CF91FF91EF91BF91AF919F918F917F916D
S1131F106F915F914F913F912F910F9000925F00CD
S1131F200F901F901895CF93DF931F92CDB7DEB714
S1131F3089838091F5019091F60169810E944E1682
S1131F400F90DF91CF9108958F929F92AF92BF929D
S1131F50CF92DF92EF920F93CF93DF93CDB7DEB79B
S1131F608BEF91E00E946E108EE192E00E946E1061
S1131F700F2EFCEE8F2EFEE09F2EF02D0F2EFEE195
S1131F80AF2EF2E0BF2EF02D0F2EFBEFCF2EF1E09F
S1131F90DF2EF02DE12C00E023E040E052EC61E084
S1131FA070E080E00E948D159093F6018093F50116
S1131FB087E290E027E230E0F90120812C73FC01F4
S1131FC020838AE290E02AE230E0F9012081277F31
S1131FD0FC01208388E290E028E230E0F9012081CE
S1131FE0236CFC0120838BE290E02BE230E0F901CA
S1131FF020812860FC0120838AE290E02AE230E01C
S1132000F90120812467FC0120838BE290E02BE21C
S113201030E0F90120812064FC01208381E290E01A
S1132020FC01808181E290E02FEFFC01208384E2B7
S113203090E024E230E0F90120812360FC01208358
S113204084E290E024E230E0F90120812C63FC0179
S113205020830000DF91CF910F91EF90DF90CF901C
S1132060BF90AF909F908F900895CF93DF931F926E
S1132070CDB7DEB7898385E290E025E230E0F9014F
S11320802081237CFC01208385E290E025E230E07E
S1132090F9012081422F2981222F30E0220F331FA2
S11320A0220F331F242BFC01208300000F90DF91AB
S11320B0CF910895CF93DF931F92CDB7DEB7898375
S11320C085E290E025E230E0F9012081237CFC01E7
S11320D0208300000F90DF91CF910895CF93DF9379
S11320E000D0CDB7DEB79A83898389819A81FC01B8
S11320F010A289819A81FC0111A289819A81FC0133
S113210012A200000F900F90DF91CF910895CF930A
S1132110DF9300D000D0CDB7DEB79A8389837C8368
S11321206B8389819A81FC0182A1882381F1898151
S11321309A81FC0181A1882F90E029813A81820F44
S1132140931FFC0120818B819C81FC012083898168
S11321509A81FC0181A1882F90E001968F7190787B
S1132160992324F40197806E9F6F0196282F89810B
S11321709A81FC0121A389819A81FC0182A12FEF1C
S1132180280F89819A81FC0122A380E001C081E0AB
S11321900F900F900F900F90DF91CF910895CF93F0
S11321A0DF9300D01F92CDB7DEB79A8389836B8308
S11321B089819A81FC0182A1803268F589819A81A2
S11321C0FC0180A1882F90E029813A81820F931F1E
S11321D02B81FC01208389819A81FC0180A1882FB5
S11321E090E001968F719078992324F40197806E82
S11321F09F6F0196282F89819A81FC0120A38981F0
S11322009A81FC0182A121E0280F89819A81FC0135
S113221022A380E001C082E00F900F900F90DF9125
S1132220CF910895CF93DF9300D0CDB7DEB79A83D3
S1132230898389819A819C012D5F3F4F89819A818D
S1132240FC013283218389819A812FEF3FEFFC01C6
S11322503483238389819A819C012D5F3F4F898137
S11322609A81FC013683258389819A819C012D5FA3
S11322703F4F89819A81FC013087278389819A8124
S1132280FC01108200000F900F90DF91CF91089510
S1132290CF93DF9300D0CDB7DEB79A83898389814A
S11322A09A81FC011186108600000F900F90DF9137
S11322B0CF910895CF93DF9300D000D000D0CDB755
S11322C0DEB79C838B837E836D838B819C81FC0131
S11322D0818192819A8389838D819E8129813A812A
S11322E0FC013383228389819A81FC012481358115
S11322F08D819E81FC013583248389819A81FC012F
S1132300848195812D813E81FC01338322838981DF
S11323109A812D813E81FC01358324838D819E81A8
S11323202B813C81FC01318720878B819C81FC01BE
S1132330808121E0280F8B819C81FC012083000097
S113234026960FB6F894DEBF0FBECDBFDF91CF91B6
S11323500895CF93DF93CDB7DEB728970FB6F894DF
S1132360DEBF0FBECDBF9E838D8378876F838F8141
S11323709885FC01808191819C838B838B819C81D6
S1132380019641F48D819E81FC01878190859A8319
S113239089831AC08D819E8103969A83898307C09D
S11323A089819A81FC01828193819A8389838981BD
S11323B09A81FC0182819381FC01208131818B818E
S11323C09C818217930760F789819A81FC0122819D
S11323D033818F819885FC01338322838F81988593
S11323E0FC01828193812F813885FC01358324830C
S11323F08F81988529813A81FC01358324838981E1
S11324009A812F813885FC01338322838F819885BB
S11324102D813E81FC01318720878D819E81FC01C5
S1132420808121E0280F8D819E81FC0120830000A2
S113243028960FB6F894DEBF0FBECDBFDF91CF91C3
S11324400895CF93DF9300D000D0CDB7DEB79C833F
S11324508B838B819C81FC01808591859A83898300
S11324608B819C81FC01828193812B813C81F901C8
S113247024813581FC01358324838B819C81FC017B
S1132480848195812B813C81F90122813381FC0176
S11324903383228389819A81FC01218132818B815A
S11324A09C812817390751F48B819C81FC0124817C
S11324B0358189819A81FC01328321838B819C81BE
S11324C0FC011186108689819A81FC0180812FEF9D
S11324D0280F89819A81FC01208389819A81FC01DA
S11324E080810F900F900F900F90DF91CF910895FE
S11324F0CF93DF93CDB7DEB728970FB6F894DEBF3E
S11325000FBECDBF9C838B837E836D8358874F839F
S11325108B819C8121E1FC0120838B819C8101972B
S11325209C838B838B819C8122E2FC0120838B81A1
S11325309C8101979C838B838B819C8123E3FC0189
S113254020838B819C8101979C838B838D819E81C9
S11325509A83898329818B819C81FC0120838B81CF
S11325609C8101979C838B8389819A81892F9927E8
S11325709A83898329818B819C81FC0120838B81AF
S11325809C8101979C838B838B819C81FC011082AD
S11325908B819C8101979C838B838B819C8120E818
S11325A0FC0120838B819C8101979C838B838B818D
S11325B09C81FC0110828B819C8101979C838B837D
S11325C08B819C8122E0FC0120838B819C8101977B
S11325D09C838B838B819C8123E0FC0120838B81F2
S11325E09C8101979C838B838B819C8124E0FC01DB
S11325F020838B819C8101979C838B838B819C811D
S113260025E0FC0120838B819C8101979C838B8333
S11326108B819C8126E0FC0120838B819C81019726
S11326209C838B838B819C8127E0FC0120838B819D
S11326309C8101979C838B838B819C8128E0FC0186
S113264020838B819C8101979C838B838B819C81CC
S113265029E0FC0120838B819C8101979C838B83DF
S11326608B819C8120E1FC0120838B819C810197DB
S11326709C838B838B819C8121E1FC0120838B8152
S11326809C8101979C838B838B819C8122E1FC013B
S113269020838B819C8101979C838B838B819C817C
S11326A023E1FC0120838B819C8101979C838B8394
S11326B08B819C8124E1FC0120838B819C81019787
S11326C09C838B838B819C8125E1FC0120838B81FE
S11326D09C8101979C838B838B819C8126E1FC01E7
S11326E020838B819C8101979C838B838B819C812C
S11326F027E1FC0120838B819C8101979C838B8340
S11327008B819C8128E1FC0120838B819C81019732
S11327109C838B838B819C8129E1FC0120838B81A9
S11327209C8101979C838B838B819C8120E2FC019B
S113273020838B819C8101979C838B838B819C81DB
S113274021E2FC0120838B819C8101979C838B83F4
S11327508B819C8122E2FC0120838B819C810197E7
S11327609C838B838B819C8123E2FC0120838B815E
S11327709C8101979C838B838F8198859A8389831D
S113278029818B819C81FC0120838B819C81019711
S11327909C838B8389819A81892F99279A83898342
S11327A029818B819C81FC0120838B819C810197F1
S11327B09C838B838B819C8126E2FC0120838B810B
S11327C09C8101979C838B838B819C8127E2FC01F4
S11327D020838B819C8101979C838B838B819C813B
S11327E028E2FC0120838B819C8101979C838B834D
S11327F08B819C8129E2FC0120838B819C81019740
S11328009C838B838B819C8120E3FC0120838B81BF
S11328109C8101979C838B838B819C8121E3FC01A8
S113282020838B819C8101979C838B838B819C81EA
S113283028960FB6F894DEBF0FBECDBFDF91CF91BF
S11328400895CF93DF93CDB7DEB70E940E15A09104
S1132850C607B091C707CD91CDBFDD91DEBFFF9113
S1132860EF91DF91CF91BF91AF919F918F917F9124
S11328706F915F914F913F912F911F910F91FF9015
S1132880EF90DF90CF90BF90AF909F908F907F900C
S11328906F905F904F903F902F901F900F900FBEBE
S11328A00F90089581E0DF91CF9108950F920FB6B4
S11328B0F8940F921F9211242F923F924F925F929D
S11328C06F927F928F929F92AF92BF92CF92DF923C
S11328D0EF92FF920F931F932F933F934F935F9326
S11328E06F937F938F939F93AF93BF93CF93DF9314
S11328F0EF93FF93A091C607B091C7070DB60D9251
S11329000EB60D920E94E722A091C607B091C707A8
S1132910CD91CDBFDD91DEBFFF91EF91DF91CF91DE
S1132920BF91AF919F918F917F916F915F914F91E3
S11329303F912F911F910F91FF90EF90DF90CF90D7
S1132940BF90AF909F908F907F906F905F904F90CB
S11329503F902F901F900F900FBE0F90089500008E
S11329600F920FB6F8940F921F9211242F923F9258
S11329704F925F926F927F928F929F92AF92BF928B
S1132980CF92DF92EF92FF920F931F932F933F9377
S11329904F935F936F937F938F939F93AF93BF9363
S11329A0CF93DF93EF93FF93A091C607B091C7072E
S11329B00DB60D920EB60D920E94FA21882311F0E5
S11329C00E94E722A091C607B091C707CD91CDBF61
S11329D0DD91DEBFFF91EF91DF91CF91BF91AF9178
S11329E09F918F917F916F915F914F913F912F9123
S11329F01F910F91FF90EF90DF90CF90BF90AF9019
S1132A009F908F907F906F905F904F903F902F900A
S1132A101F900F900FBE0F9008950000CF93DF9387
S1132A2000D000D000D0CDB7DEB789E999E3A0E0AB
S1132A30B0E089839A83AB83BC8389819A81AB811B
S1132A40BC81689415F8B695A795979587951694C3
S1132A50D1F789839A83AB83BC8389819A81AB81C3
S1132A60BC810197A109B10989839A83AB83BC8393
S1132A7089818D8389819A81AB81BC81892F9A2F29
S1132A80AB2FBB2789839A83AB83BC8389818E83D5
S1132A9089E890E02E81FC01208388E890E02D8174
S1132AA0FC0120838BE08D8381E890E02D81FC0183
S1132AB020838FE690E0FC0180818D838D8182608C
S1132AC08D838FE690E02D81FC0120830000269603
S1132AD00FB6F894DEBF0FBECDBFDF91CF9108953E
S1132AE00E94B01418950000CF93DF9300D0CDB7A7
S1132AF0DEB79A83898389819A81059729813A81EE
S1132B0025503109F90120812062FC012083000055
S1132B100F900F90DF91CF9108958F929F92AF9273
S1132B20BF92CF92DF92EF920F931F93CF93DF93D5
S1132B30CDB7DEB761970FB6F894DEBF0FBECDBF39
S1132B408C834D835E836F83788729870A87EB861E
S1132B50DD86CC86BF86AE86998A888A88E090E036
S1132B600E94E0179A8389838C81882F90E0880FD4
S1132B70991F8F5B9D4F29813A81FC01318320830A
S1132B808C81882F90E0880F991F805E9E4FFC01F6
S1132B902081318189819A81FC013183208389815B
S1132BA09A812E853F85FC013383228389819A8112
S1132BB02C853D85FC013583248389819A8128896C
S1132BC03989FC01378326838FE590E0FC018081FD
S1132BD08B83F89489819A81FC0180819181069785
S1132BE029813A81F9012081318126503109F90185
S1132BF020812260FC01208389819A81FC018081EB
S1132C0091818C01025011098D819E81AF81B8851B
S1132C10880F991FAA1FBB1F880F991FAA1FBB1FCC
S1132C20880F991FAA1FBB1F9C01AD0180E090E093
S1132C30A1EEB0E0BC01CD010E948C27DA01C901EC
S1132C408150F801808389819A81FC01808191817E
S1132C50059728E9FC01208389819A81FC01808100
S1132C609181049726E0FC0120838FE590E02B817D
S1132C70FC01208389819A8161960FB6F894DEBFA6
S1132C800FBECDBFDF91CF911F910F91EF90DF90D9
S1132C90CF90BF90AF909F908F900895CF93DF9384
S1132CA000D01F92CDB7DEB79A8389836B83898165
S1132CB09A81FC0182819381892B99F089819A817F
S1132CC0FC01828193816B810E94CF10882349F497
S1132CD089819A81FC01808191810E94741580E030
S1132CE001C082E00F900F900F90DF91CF91089573
S1132CF01F920F9200905F000F9211242F933F9325
S1132D004F935F936F937F938F939F93AF93BF93EF
S1132D10EF93FF93CF93DF931F92CDB7DEB78091EC
S1132D20410290914202892B31F186EC90E0FC0142
S1132D30808189838091410290914202FC018481C7
S1132D40958169810E94CF10809141029091420245
S1132D50FC0186819781892B71F0809141029091C9
S1132D604202FC0126813781809141029091420206
S1132D706981F901099500000F90DF91CF91FF91CE
S1132D80EF91BF91AF919F918F917F916F915F91DF
S1132D904F913F912F910F9000925F000F901F90E1
S1132DA018951F920F9200905F000F9211242F9399
S1132DB03F934F935F936F937F938F939F93AF93BF
S1132DC0BF93EF93FF93CF93DF931F92CDB7DEB7FB
S1132DD08091410290914202892BF9F08091410245
S1132DE090914202FC01828193819E012F5F3F4FAB
S1132DF0B9010E948710882331F486EC90E0298180
S1132E00FC01208313C081EC90E021EC30E0F90157
S1132E1020812F7DFC01208309C081EC90E021EC0E
S1132E2030E0F90120812F7DFC01208300000F9008
S1132E30DF91CF91FF91EF91BF91AF919F918F91CE
S1132E407F916F915F914F913F912F910F900092DD
S1132E505F000F901F9018951F920F9200905F00D3
S1132E600F9211242F933F934F935F936F937F930C
S1132E708F939F93AF93BF93EF93FF93CF93DF937E
S1132E801F92CDB7DEB78091430290914402892B03
S1132E9031F18EEC90E0FC018081898380914302C2
S1132EA090914402FC018481958169810E94CF1034
S1132EB08091430290914402FC0186819781892B81
S1132EC071F08091430290914402FC012681378184
S1132ED080914302909144026981F90109950000AF
S1132EE00F90DF91CF91FF91EF91BF91AF919F919F
S1132EF08F917F916F915F914F913F912F910F909F
S1132F0000925F000F901F9018951F920F920090EF
S1132F105F000F9211242F933F934F935F936F930E
S1132F207F938F939F93AF93BF93EF93FF93CF932D
S1132F30DF931F92CDB7DEB7809143029091440294
S1132F40892BF9F08091430290914402FC01828123
S1132F5093819E012F5F3F4FB9010E948710882300
S1132F6031F48EEC90E02981FC01208313C089ECBC
S1132F7090E029EC30E0F90120812F7DFC012083D1
S1132F8009C089EC90E029EC30E0F90120812F7D23
S1132F90FC01208300000F90DF91CF91FF91EF910E
S1132FA0BF91AF919F918F917F916F915F914F915D
S1132FB03F912F910F9000925F000F901F901895F2
S1132FC0CF93DF93CDB7DEB72E970FB6F894DEBF5D
S1132FD00FBECDBF9E878D871E821D820E943F211A
S1132FE08091C507882329F40E94471981E08093C2
S1132FF0C5078D859E85892B41F084E090E02D8561
S11330003E85820F931F9E878D878D859E85892B94
S113301009F4B8C08D859E858737954008F0B2C005
S11330208DEB97E09C838B838091BD079091BE07C5
S11330309A8389830BC089819A819C838B8389813C
S11330409A81FC01808191819A83898389819A8103
S1133050FC01228133818D859E852817390738F438
S113306089819A81FC0180819181892B21F7898151
S11330709A81815C974009F485C08B819C81FC0115
S11330802081318184E090E0820F931F9E838D83A1
S113309089819A81FC01208131818B819C81FC0191
S11330A03183208389819A81FC01228133818D853A
S11330B09E85281B390B84E090E0880F991F8217A6
S11330C0930708F04EC029813A818D859E85820F31
S11330D0931F9A87898789819A81FC012281338190
S11330E08D859E85281B390B89859A85FC01338340
S11330F0228389819A812D853E85FC013383228335
S113310089859A85FC01828193819C878B878DEBCD
S113311097E098878F8307C08F819885FC01808111
S1133120918198878F838F819885FC01808191811B
S1133130FC01228133818B859C852817390760F334
S11331408F819885FC012081318189859A85FC01D4
S1133150318320838F81988529853A85FC013183C9
S11331602083209124013091250189819A81FC01D9
S113317082819381A901481B590BCA0190932501AF
S1133180809324010E944C218D819E81892B11F40E
S11331900E94CD098D819E812E960FB6F894DEBFD4
S11331A00FBECDBFDF91CF910895CF93DF93CDB7FD
S11331B0DEB72A970FB6F894DEBF0FBECDBF9A874D
S11331C0898789859A859C838B8389859A85892BB0
S11331D009F453C084E090E09195819591092B8185
S11331E03C81820F931F9C838B838B819C819E8364
S11331F08D830E943F218D819E81FC018281938178
S113320098878F838DEB97E09A83898307C08981A0
S11332109A81FC01808191819A83898389819A8131
S1133220FC0180819181FC01228133818F81988509
S11332302817390760F389819A81FC012081318143
S11332408D819E81FC013183208389819A812D8126
S11332503E81FC01318320838D819E81FC0122818A
S113326033818091240190912501820F931F9093C3
S11332702501809324010E944C2100002A960FB658
S1133280F894DEBF0FBECDBFDF91CF910895CF93E9
S1133290DF9300D000D0CDB7DEB786E492E09A8306
S11332A0898389819A819093BE078093BD07109288
S11332B0C0071092BF0787E795E09093C4078093F7
S11332C0C3071092C2071092C10789819A819C8317
S11332D08B838B819C8127E735E0FC013383228338
S11332E08B819C8121EC37E0FC0131832083000039
S11332F00F900F900F900F90DF91CF910895CF937F
S1133300DF9300D000D01F92CDB7DEB79C838B83B0
S11333106D838B819C819A8389830FB6F8940F9275
S113332089819A81FC018081918129813A81F90105
S1133330238D422F50E029813A81F901248D222FD7
S113334030E0429FB001439F700D529F700D1124D5
S11333509B01280F391F89819A81FC0133832283C1
S113336089819A81FC01128E89819A81FC012081D4
S1133370318189819A81FC013583248389819A81F1
S1133380FC018081918129813A81F901238D222FC9
S113339030E0A9014150510929813A81F901248D74
S11333A0222F30E0429FB001439F700D529F700D59
S11333B011249B01280F391F89819A81FC013783CD
S11333C0268389819A812FEFFC01258F89819A8137
S11333D02FEFFC01268F8D81882381F489819A81C6
S11333E0FC0180858823A1F089819A8108960E9436
S11333F0AF23882369F00E9456140AC089819A81F8
S113340008960E94121189819A8141960E94121194
S11334100F900FBE81E00F900F900F900F900F90C0
S1133420DF91CF9108950F931F93CF93DF93CDB77F
S1133430DEB729970FB6F894DEBF0FBECDBF8F83DA
S1133440688749878885882319F41A8219820FC0EE
S11334508F81482F50E08885282F30E0429FC0019B
S1133460439F900D529F900D11249A8389838981E3
S11334709A8181960E94E0179C838B838B819C8127
S1133480892B81F08B819C8181969E838D832B81F6
S11334903C818D819E8189012985AC0168858F815C
S11334A00E945F1A8B819C8129960FB6F894DEBF27
S11334B00FBECDBFDF91CF911F910F9108950F9350
S11334C01F93CF93DF93CDB7DEB727970FB6F8944A
S11334D0DEBF0FBECDBF89836A835C834B832D839C
S11334E01F830E838A81882341F48E819F812E81DC
S11334F03F81FC013183208307C08E819F812B8112
S11335003C81FC01318320838E819F812981FC01D0
S1133510238F8E819F812A81FC01248F8E819F813C
S113352061E00E947F198E819F812D81FC0120A37F
S1133530000027960FB6F894DEBF0FBECDBFDF9113
S1133540CF911F910F910895CF93DF93CDB7DEB73D
S11335502E970FB6F894DEBF0FBECDBF998788872C
S11335607B876A875D874C872E8719828885998532
S11335709B838A830FB6F8940F928A819B81FC0106
S1133580228D8A819B81FC01838D281718F08E85FA
S1133590823011F52A853B858A819B814E85B9014C
S11335A00E94D11C8C838A819B81FC0181898823A0
S11335B051F08A819B8141960E94AF23882341F078
S11335C00E94561405C08C81882311F00E94561461
S11335D00F900FBE81E060C08C859D85892B21F4FE
S11335E00F900FBE80E058C08981882331F4CE014A
S11335F005960E941C2481E089830F900FBE0E94CF
S11336003F210FB6F8940F928A819B81FC01858D2E
S11336108F3F21F48A819B81FC01158E8A819B81D5
S1133620FC01868D8F3F21F48A819B81FC01168EDB
S11336300F900FBE9E01245F3F4FCE010596B90146
S11336400E943824882309F58A819B810E946E1E7A
S11336508823A1F02C853D858A819B810896B90138
S11336600E948C238A819B810E94F21D0E944C211E
S1133670882309F07FCF0E9456147CCF8A819B81D6
S11336800E94F21D0E944C2175CF8A819B810E9469
S1133690F21D0E944C2180E02E960FB6F894DEBFF6
S11336A00FBECDBFDF91CF910895CF93DF93CDB7F8
S11336B0DEB72C970FB6F894DEBF0FBECDBF9F8345
S11336C08E83798768875B874A872C878E819F8161
S11336D09B838A831C828A819B81FC01228D8A813F
S11336E09B81FC01838D281718F08C85823089F525
S11336F08A819B81FC01868D8D83288539858A8109
S11337009B814C85B9010E94D11C8D818F3FB9F4F6
S11337108A819B81FC0181898823C1F08A819B81F4
S113372041960E94AF23882389F08A859B85892B43
S113373069F08A859B8521E0FC01208307C08D8187
S11337408F5F282F8A819B81FC01268F81E08983EA
S113375001C0198289812C960FB6F894DEBF0FBE82
S1133760CDBFDF91CF910895CF93DF93CDB7DEB76F
S113377060970FB6F894DEBF0FBECDBF9B878A87D4
S11337807D876C875F874E87288B19828A859B8506
S11337909B838A830FB6F8940F928A819B81FC01E4
S11337A0828D8C838C81882309F451C08A819B810A
S11337B0FC01868197819E838D832C853D858A813A
S11337C09B81B9010E94A11D8889882331F58C81D0
S11337D02FEF280F8A819B81FC01228F8A819B8194
S11337E0FC0180819181892B41F40E94F6269C0181
S11337F08A819B81FC01338322838A819B81FC0122
S11338008085882301F18A819B8108960E94AF23D9
S11338108823C9F00E94561416C08A819B812D8189
S11338203E81FC01378326838A819B81FC01818947
S1133830882349F08A819B8141960E94AF23882383
S113384011F00E9456140F900FBE81E07AC08E854D
S11338509F85892B21F40F900FBE80E072C089816F
S1133860882331F4CE0107960E941C2481E08983C9
S11338700F900FBE0E943F210FB6F8940F928A81D9
S11338809B81FC01858D8F3F21F48A819B81FC0102
S1133890158E8A819B81FC01868D8F3F21F48A815C
S11338A09B81FC01168E0F900FBE9E01225F3F4F3D
S11338B0CE010796B9010E9438248823A1F58A8194
S11338C09B810E94501E882339F18A819B81FC01CF
S11338D080819181892B61F40FB6F8940F928A81CB
S11338E09B81FC01828193810E94E1250F900FBE90
S11338F02E853F858A819B814196B9010E948C2344
S11339008A819B810E94F21D0E944C21882309F028
S113391041CF0E9456143ECF8A819B810E94F21DA2
S11339200E944C2137CF8A819B810E94F21D0E9404
S11339304C218A819B810E94501E882309F42ACF3E
S113394080E060960FB6F894DEBF0FBECDBFDF9166
S1133950CF910895CF93DF9300D000D01F92CDB7BD
S1133960DEB79D838C838C819D819A8389830FB676
S1133970F8940F9289819A81FC01238D89819A811F
S1133980FC01828DF22FF81B8F2F8B830F900FBEBB
S11339908B810F900F900F900F900F90DF91CF912C
S11339A00895CF93DF93CDB7DEB727970FB6F8947A
S11339B0DEBF0FBECDBF9C838B837E836D834F831D
S11339C019828B819C81FC01828D8A838B819C81ED
S11339D0FC01848D8823B1F48B819C81FC0180815E
S11339E09181892B09F09CC08B819C81FC0182818F
S11339F093810E94792689838B819C81FC011382A7
S1133A0012828EC08F818823D9F58B819C81FC0121
S1133A10848D482F50E08B819C81FC0184819581A9
S1133A202D813E81B9010E94C2278B819C81FC01BA
S1133A30248135818B819C81FC01848D882F90E0C9
S1133A40280F391F8B819C81FC01358324838B8152
S1133A509C81FC01248135818B819C81FC018281C4
S1133A6093812817390708F45BC08B819C81FC0182
S1133A70208131818B819C81FC013583248350C05A
S1133A808B819C81FC01848D482F50E08B819C812B
S1133A90FC01868197812D813E81B9010E94C22754
S1133AA08B819C81FC01268137818B819C81FC0167
S1133AB0848D882F90E0919581959109280F391F65
S1133AC08B819C81FC01378326838B819C81FC0143
S1133AD0268137818B819C81FC018081918128170B
S1133AE03907A8F48B819C81FC01228133818B816D
S1133AF09C81FC01848D882F90E09195819591099A
S1133B00280F391F8B819C81FC01378326838F8189
S1133B10823031F48A81882319F08A8181508A8322
S1133B208A8121E0280F8B819C81FC01228F89816D
S1133B3027960FB6F894DEBF0FBECDBFDF91CF91AD
S1133B400895CF93DF9300D000D0CDB7DEB79A832A
S1133B5089837C836B8389819A81FC01848D88238A
S1133B60C9F189819A81FC012681378189819A81F1
S1133B70FC01848D882F90E0280F391F89819A8158
S1133B80FC013783268389819A81FC012681378150
S1133B9089819A81FC01828193812817390750F029
S1133BA089819A81FC012081318189819A81FC017A
S1133BB03783268389819A81FC01848D482F50E0C4
S1133BC089819A81FC01268137818B819C81B9018D
S1133BD00E94C22700000F900F900F900F90DF916A
S1133BE0CF910895CF93DF9300D000D0CDB7DEB747
S1133BF09C838B830FB6F8940F928B819C81FC017C
S1133C00868D898312C08B819C81FC0181898823E4
S1133C1081F08B819C8141960E94AF23882311F00F
S1133C200E94A024898181508983898118165CF3BC
S1133C3001C000008B819C812FEFFC01268F0F9027
S1133C400FBE0FB6F8940F928B819C81FC01858D79
S1133C508A8312C08B819C81FC018085882381F03A
S1133C608B819C8108960E94AF23882311F00E94C7
S1133C70A0248A8181508A838A8118165CF301C04A
S1133C8000008B819C812FEFFC01258F0F900FBECC
S1133C9000000F900F900F900F90DF91CF91089537
S1133CA0CF93DF9300D01F92CDB7DEB79B838A8377
S1133CB00FB6F8940F928A819B81FC01828D882330
S1133CC019F481E0898301C019820F900FBE8981A4
S1133CD00F900F900F90DF91CF910895CF93DF93C2
S1133CE000D01F92CDB7DEB79B838A830FB6F894BA
S1133CF00F928A819B81FC01228D8A819B81FC0128
S1133D00838D281719F481E0898301C019820F90EB
S1133D100FBE89810F900F900F90DF91CF9108957E
S1133D208F929F92AF92BF92CF92DF92EF92FF92C7
S1133D300F931F93CF93DF93CDB7DEB760970FB682
S1133D40F894DEBF0FBECDBF9F838E8379876887CB
S1133D505B874A873D872C870E87F88AEF868A859A
S1133D609B850E94E0179D838C838C819D81892B88
S1133D70B9F08CE290E00E94E0179A8389838981EC
S1133D809A81892B41F089819A812C813D81FC01A2
S1133D90308F278B07C08C819D810E94D51802C06B
S1133DA01A82198289819A81892B09F18A859B85D6
S1133DB0CC01A0E0B0E009811A814F8558892C8597
S1133DC03D8568857985EE81FF81812C912C580190
S1133DD06A01EE8489019C01AD01CF010E940D1F8F
S1133DE089819A810E94E91F81E08B8302C08FEF51
S1133DF08B838B8160960FB6F894DEBF0FBECDBF68
S1133E00DF91CF911F910F91FF90EF90DF90CF90B2
S1133E10BF90AF909F908F9008958F929F92AF9292
S1133E20BF92CF92DF92EF920F931F93CF93DF93C2
S1133E30CDB7DEB764970FB6F894DEBF0FBECDBF23
S1133E409D838C837F836E83288739874A875B872A
S1133E501D870C87EE86D88ACF86BA8AA98A9C8A5F
S1133E608B8A2885398589899A89FC018789908D6F
S1133E70A90165EA70E00E94CB2789899A89FC012F
S1133E802789308D888599850197820F931F9B839D
S1133E908A83198221C08981882F90E02981222F69
S1133EA030E04E815F81240F351FF901408129895B
S1133EB03A89820F931F4996FC0140838981882F98
S1133EC090E02E813F81820F931FFC018081882323
S1133ED039F089818F5F898389818830E0F201C05C
S1133EE0000089899A89FC0110A28E85843010F023
S1133EF083E08E8789899A892E85FC01268B89899E
S1133F009A892E85FC0123A389899A89FC0114A22C
S1133F1089899A8902960E94481189899A890C96FE
S1133F200E94481189899A8929893A89FC01318733
S1133F3020878E85882F90E024E030E0281B390B01
S1133F4089899A89FC013587248789899A892989ED
S1133F503A89FC01338B228B89899A89FC0116A248
S1133F6015A289899A89FC0117A210A611A612A686
S1133F7089899A89FC0113A64C855D852C813D8134
S1133F808A819B81B9010E9478129C0189899A894E
S1133F90FC01318320838F859889892B39F08F85A3
S1133FA0988929893A89FC01318320830000649629
S1133FB00FB6F894DEBF0FBECDBFDF91CF911F9136
S1133FC00F91EF90DF90CF90BF90AF909F908F9024
S1133FD00895CF93DF9300D0CDB7DEB79A8389835A
S1133FE00FB6F8940F92809115088F5F809315088F
S1133FF08091C6079091C707892B69F489819A81BA
S11340009093C7078093C607809115088130C9F43F
S11340100E94BD2416C080911908882391F48091D0
S1134020C6079091C707FC01268989819A81FC0102
S11340308689821730F089819A819093C70780938B
S1134040C60780911D088F5F80931D0820911D086D
S113405089819A81FC0121A389819A81FC01968935
S113406080911808891730F489819A81FC01868926
S11340708093180889819A81AC014E5F5F4F8981D2
S11340809A81FC018689282F30E0C901880F991F85
S1134090880F991F880F991F820F931F8853984F79
S11340A0BA010E945A110F900FBE809119088823FB
S11340B071F08091C6079091C707FC012689898118
S11340C09A81FC018689281710F40E945614000076
S11340D00F900F90DF91CF910895CF93DF93CDB7D9
S11340E0DEB72A970FB6F894DEBF0FBECDBF988710
S11340F08F837A87698719820E943F2180911608ED
S1134100909117089B838A838F819885FC01208175
S1134110318189859A85820F931F9D838C838F813A
S11341209885FC01208131818A819B8182179307C4
S1134130A0F48F819885FC01208131818C819D813F
S113414082179307E8F42C813D818A819B81821731
S11341509307B0F481E0898313C08F819885FC01B3
S1134160208131818C819D818217930738F02C81C5
S11341703D818A819B818217930710F481E08983B2
S11341808F8198852C813D81FC0131832083898135
S1134190882359F02C813D818A819B81A901481B88
S11341A0590BCA0160E00E9410270E944C218E83A3
S11341B08E81882311F40E94561400002A960FB6AB
S11341C0F894DEBF0FBECDBFDF91CF910895CF939A
S11341D0DF9300D01F92CDB7DEB79B838A83198209
S11341E08A819B81892B51F00E943F218A819B8186
S11341F060E00E9410270E944C21898389818823D2
S113420011F40E94561400000F900F900F90DF914C
S1134210CF910895EF92FF920F93CF93DF931F9264
S1134220CDB7DEB70F2EF0E2EF2EF8E0FF2EF02D23
S113423000E020E030E045E550E061E771E08BEA22
S113424094E20E94901E89838981813081F4F894DC
S11342508FEF9FEF90931F0880931E0881E0809357
S1134260190810921708109216080E9421140000D1
S11342700F90DF91CF910F91FF90EF900895CF931E
S1134280DF93CDB7DEB7809122088F5F8093220839
S11342900000DF91CF910895CF93DF9300D000D039
S11342A0CDB7DEB71A8219821B820FB6F8940F922B
S11342B080912208815080932208809122088823CB
S11342C009F077C080911508882309F472C049C0A9
S11342D08091070890910808FC01868197819A8350
S11342E0898389819A810C960E94211289819A81FD
S11342F002960E94211289819A81FC0196898091FB
S11343001808891730F489819A81FC018689809381
S1134310180889819A81AC014E5F5F4F89819A8127
S1134320FC018689282F30E0C901880F991F880F66
S1134330991F880F991F820F931F8853984FBA01B2
S11343400E945A1189819A81FC0126898091C607AD
S11343509091C707FC018689281718F081E08093A3
S11343601B0880910208882309F0B2CF89819A81C1
S1134370892B11F00E94B22580911A088C838C81BC
S1134380882379F00E94FA21882319F081E0809330
S11343901B088C8181508C838C81882399F710921F
S11343A01A0880911B08882321F081E08B830E94E6
S11343B056140F900FBE8B810F900F900F900F909B
S11343C0DF91CF910895CF93DF9300D0CDB7DEB7BF
S11343D00FB6F8940F9280911608909117089A835B
S11343E089830F900FBE89819A810F900F90DF917E
S11343F0CF910895CF93DF93CDB7DEB729970FB64A
S1134400F894DEBF0FBECDBF1982809122088823A5
S113441009F0C8C0809116089091170801969B83F3
S11344208A838A819B8190931708809316088A81D6
S11344309B81892BD9F48091FE079091FF079D837E
S11344408C8380910008909101089093FF078093DA
S1134450FE078C819D8190930108809300088091D0
S11344601C088F5F80931C080E94B22580911E084F
S113447090911F082A813B812817390708F478C0D6
S11344808091FE079091FF07FC018081882339F415
S11344908FEF9FEF90931F0880931E0869C080914F
S11344A0FE079091FF07FC0185819681FC018681BE
S11344B097819F838E838E819F81FC01828193816A
S11344C0998788872A813B818885998528173907A8
S11344D038F48885998590931F0880931E0848C0F6
S11344E08E819F8102960E9421128E819F81FC0100
S11344F084899589892B29F08E819F810C960E944D
S113450021128E819F81FC01968980911808891758
S113451030F48E819F81FC018689809318088E81F6
S11345209F81AC014E5F5F4F8E819F81FC01868924
S1134530282F30E0C901880F991F880F991F880F11
S1134540991F820F931F8853984FBA010E945A11E2
S11345508E819F81FC0126898091C6079091C707AF
S1134560FC018689281708F48BCF81E0898388CFE2
S11345708091C6079091C707FC018689282F30E0F7
S1134580C901880F991F880F991F880F991F820FDF
S1134590931F8853984FFC018081823040F081E062
S11345A0898305C080911A088F5F80931A088091CF
S11345B01B08882311F081E08983898129960FB62D
S11345C0F894DEBF0FBECDBFDF91CF910895CF9396
S11345D0DF9300D01F92CDB7DEB7809122088823E5
S11345E021F081E080931B0890C010921B088091F9
S11345F0C6079091C707FC0185A196A10E945A1095
S11346008091C6079091C707FC0120813181809178
S1134610C6079091C707FC018789908D821793077D
S113462070F08091C6079091C7079C01275E3F4FA9
S11346308091C6079091C707B9010E94BB09809178
S11346401808898303C08981815089838981282F2F
S113465030E0C901880F991F880F991F880F991F8F
S1134660820F931F8853984FFC018081882359F34C
S11346708981282F30E0C901880F991F880F991F5D
S1134680880F991F820F931F8853984F9B838A83A7
S11346908A819B81FC0181819281FC012281338189
S11346A08A819B81FC01328321838A819B81FC0165
S11346B0218132818A819B8103962817390769F405
S11346C08A819B81FC0181819281FC012281338159
S11346D08A819B81FC01328321838A819B81FC0135
S11346E081819281FC01868197819093C707809391
S11346F0C6078981809318088091C6079091C707DF
S1134700FC0185A196A10E94351000000F900F9026
S11347100F90DF91CF910895CF93DF9300D000D015
S1134720CDB7DEB79A8389837C836B838091C60778
S11347309091C7079C01245F3F4F89819A81B901F9
S11347400E94A9118B819C8161E00E9410270000C6
S11347500F900F900F900F90DF91CF910895CF930A
S1134760DF9300D000D01F92CDB7DEB79D838C833A
S11347708C819D81FC0185819681FC0186819781D4
S11347809B838A838A819B810C960E94211280914B
S11347902208882369F58A819B8102960E9421124E
S11347A08A819B81FC01968980911808891730F4CD
S11347B08A819B81FC018689809318088A819B8168
S11347C0AC014E5F5F4F8A819B81FC018689282F53
S11347D030E0C901880F991F880F991F880F991F0E
S11347E0820F931F8853984FBA010E945A1108C030
S11347F08A819B810C96BC0182E098E00E945A1148
S11348008A819B81FC0126898091C6079091C70704
S1134810FC018689821730F481E0898381E08093EA
S11348201B0801C0198289810F900F900F900F907F
S11348300F90DF91CF910895CF93DF9300D0CDB740
S1134840DEB79A83898320911C0889819A81FC01AF
S11348502083209116083091170889819A81FC01E0
S11348603283218300000F900F90DF91CF91089540
S1134870CF93DF93CDB7DEB727970FB6F894DEBF9B
S11348800FBECDBF9D838C837F836E830FB6F89458
S11348900F9280911608909117089B838A838C81CC
S11348A09D81FC01908180911C08981769F08C818E
S11348B09D81FC01218132818A819B81821793072A
S11348C018F081E0898330C08C819D81FC01818155
S11348D092812A813B81281B390B8E819F81FC01A7
S11348E08081918128173907E8F48E819F81FC012A
S11348F0208131818C819D81FC01418152818A8199
S11349009B81BA01681B790BCB01280F391F8E815B
S11349109F81FC01318320838C819D810E941C2412
S1134920198202C081E089830F900FBE8981279686
S11349300FB6F894DEBF0FBECDBFDF91CF910895BF
S1134940CF93DF93CDB7DEB781E080931B080000DF
S1134950DF91CF910895CF93DF9300D0CDB7DEB729
S11349609A8389830E94FB248091C807823010F0C7
S11349700E9456140E941A09F5CFCF93DF931F9219
S1134980CDB7DEB7198213C08981282F30E0C90161
S1134990880F991F880F991F880F991F820F931FE3
S11349A08853984F0E94121189818F5F898389816E
S11349B0843050F38CEE97E00E94121185EF97E05B
S11349C00E94121182E098E00E9412118BE098E09C
S11349D00E9412118CEE97E09093FF078093FE07DC
S11349E085EF97E0909301088093000800000F90F2
S11349F0DF91CF910895CF93DF9300D01F92CDB76D
S1134A00DEB72FC00E943F2190910B0881E09923CB
S1134A1009F080E089830E944C218981882309F56B
S1134A200FB6F8940F928091100890911108FC0130
S1134A30868197819B838A838A819B8102960E94C7
S1134A4021128091150881508093150880911408D3
S1134A508150809314080F900FBE8A819B810E941D
S1134A609A2580911408882369F600000F900F900E
S1134A700F90DF91CF910895CF93DF9300D000D0B2
S1134A8000D0CDB7DEB79E838D8319821A821B8234
S1134A901C8210C08D819E8101969E838D838981A5
S1134AA09A81AB81BC810196A11DB11D89839A8332
S1134AB0AB83BC838D819E81FC018081853A51F357
S1134AC089819A8126960FB6F894DEBF0FBECDBFBA
S1134AD0DF91CF910895CF93DF93CDB7DEB72797BA
S1134AE00FB6F894DEBF0FBECDBF9F838E838E8139
S1134AF09F81892B29F48091C6079091C70702C032
S1134B008E819F819A83898389819A81FC01878917
S1134B10908D9C838B838B819C810E943C258D830B
S1134B208D8127960FB6F894DEBF0FBECDBFDF91FF
S1134B30CF910895CF93DF9300D0CDB7DEB79A839A
S1134B40898389819A81FC018789908D0E94D51877
S1134B5089819A810E94D51800000F900F90DF91EF
S1134B60CF910895CF93DF9300D0CDB7DEB7809176
S1134B70FE079091FF07FC018081882339F48FEFB1
S1134B809FEF90931F0880931E0815C08091FE0725
S1134B909091FF07FC0185819681FC0186819781B4
S1134BA09A83898389819A81FC018281938190937C
S1134BB01F0880931E0800000F900F90DF91CF9183
S1134BC00895CF93DF9300D000D0CDB7DEB79C8398
S1134BD08B838B819C819A8389838B819C81892B94
S1134BE009F47FC089819A81FC0126898091C607D6
S1134BF09091C707FC018689281708F072C0898143
S1134C009A81FC018485958599238CF08091C6074F
S1134C109091C707FC018689882F90E024E030E05A
S1134C20281B390B89819A81FC0135872487898166
S1134C309A81FC014285538589819A81FC01868988
S1134C40282F30E0C901880F991F880F991F880FFA
S1134C50991F820F931F8853984F48175907B9F526
S1134C6089819A8102960E9421128091C6079091AF
S1134C70C707FC01268989819A81FC01268B8981D9
S1134C809A81FC01968980911808891730F48981EA
S1134C909A81FC0186898093180889819A81AC01E4
S1134CA04E5F5F4F89819A81FC018689282F30E00D
S1134CB0C901880F991F880F991F880F991F820FA8
S1134CC0931F8853984FBA010E945A110AC08091C9
S1134CD0C6079091C707FC01268989819A81FC0146
S1134CE0268B00000F900F900F900F90DF91CF91C3
S1134CF00895CF93DF9300D000D01F92CDB7DEB7D5
S1134D009D838C838C819D819B838A8319828C8172
S1134D109D81892B09F461C08A819B81FC0184A156
S1134D202FEF280F8A819B81FC0124A38A819B8118
S1134D30FC0126898A819B81FC0183A1281709F43F
S1134D404CC08A819B81FC0184A1882309F045C061
S1134D508A819B8102960E9421128A819B81FC0197
S1134D6023A18A819B81FC01268B8A819B81FC0182
S1134D708689882F90E024E030E0281B390B8A8153
S1134D809B81FC01358724878A819B81FC0196895C
S1134D9080911808891730F48A819B81FC018689E7
S1134DA0809318088A819B81AC014E5F5F4F8A8192
S1134DB09B81FC018689282F30E0C901880F991F47
S1134DC0880F991F880F991F820F931F8853984F3C
S1134DD0BA010E945A1181E0898389810F900F9052
S1134DE00F900F900F90DF91CF910895CF93DF93A1
S1134DF0CDB7DEB78091C6079091C707892B49F0DC
S1134E008091C6079091C707FC0124A12F5FFC0184
S1134E1024A38091C6079091C707DF91CF9108958D
S1134E20CF93DF93CDB7DEB727970FB6F894DEBFE5
S1134E300FBECDBF9E838D836F83809116089091A2
S1134E4017089A8389838091C6079091C7070296B1
S1134E500E94211229813A818D819E81820F931FA4
S1134E609C838B838091C6079091C7072B813C81DB
S1134E70FC01338322832B813C8189819A81281709
S1134E80390778F48091C6079091C7079C012E5F7B
S1134E903F4F8091000890910108B9010E94A91127
S1134EA01DC08091C6079091C7079C012E5F3F4F9C
S1134EB08091FE079091FF07B9010E94A91180918A
S1134EC01E0890911F082B813C812817390730F464
S1134ED08B819C8190931F0880931E080000279665
S1134EE00FB6F894DEBF0FBECDBFDF91CF9108950A
S1134EF097FB072E16F4009407D077FD09D00E9483
S1134F00AE2707FC05D03EF4909581959F4F0895F8
S1134F10709561957F4F0895A1E21A2EAA1BBB1BC1
S1134F20FD010DC0AA1FBB1FEE1FFF1FA217B30771
S1134F30E407F50720F0A21BB30BE40BF50B661F87
S1134F40771F881F991F1A9469F76095709580954B
S1134F5090959B01AC01BD01CF010895AA1BBB1B19
S1134F6051E107C0AA1FBB1FA617B70710F0A61B65
S1134F70B70B881F991F5A95A9F780959095BC0186
S1134F80CD010895FB01DC0102C001900D92415056
S1134F905040D8F70895DC0101C06D934150504052
S1134FA0E0F70895FC0101900020E9F780959095C1
S10D4FB08E0F9F1F0895F894FFCFA1
S1134FBA150200FF0301031C023E007E00FE00FCF2
S1134FCA01FE007E003E001C020103FF03000001F3
S1134FDAC600CE00770547616D6520697320726546
S1134FEA737461727465642100706C6179657220EE
S1134FFA3120776F6E00706C617965722032207788
S113500A6F6E0073657269616C5F636F6D006A6FBE
S113501A79737469636B0067616D655F72656E6449
S109502A0049444C45005E
S9030000FC
